{
    "_format": "hh-sol-artifact-1",
    "contractName": "Snake",
    "sourceName": "contracts/Snake.sol",
    "abi": [
        {
            "inputs": [],
            "stateMutability": "nonpayable",
            "type": "constructor"
        },
        {
            "inputs": [
                {
                    "internalType": "address",
                    "name": "spender",
                    "type": "address"
                },
                {
                    "internalType": "uint256",
                    "name": "allowance",
                    "type": "uint256"
                },
                {
                    "internalType": "uint256",
                    "name": "needed",
                    "type": "uint256"
                }
            ],
            "name": "ERC20InsufficientAllowance",
            "type": "error"
        },
        {
            "inputs": [
                {
                    "internalType": "address",
                    "name": "sender",
                    "type": "address"
                },
                {
                    "internalType": "uint256",
                    "name": "balance",
                    "type": "uint256"
                },
                {
                    "internalType": "uint256",
                    "name": "needed",
                    "type": "uint256"
                }
            ],
            "name": "ERC20InsufficientBalance",
            "type": "error"
        },
        {
            "inputs": [
                {
                    "internalType": "address",
                    "name": "approver",
                    "type": "address"
                }
            ],
            "name": "ERC20InvalidApprover",
            "type": "error"
        },
        {
            "inputs": [
                {
                    "internalType": "address",
                    "name": "receiver",
                    "type": "address"
                }
            ],
            "name": "ERC20InvalidReceiver",
            "type": "error"
        },
        {
            "inputs": [
                {
                    "internalType": "address",
                    "name": "sender",
                    "type": "address"
                }
            ],
            "name": "ERC20InvalidSender",
            "type": "error"
        },
        {
            "inputs": [
                {
                    "internalType": "address",
                    "name": "spender",
                    "type": "address"
                }
            ],
            "name": "ERC20InvalidSpender",
            "type": "error"
        },
        {
            "anonymous": false,
            "inputs": [
                {
                    "indexed": true,
                    "internalType": "address",
                    "name": "owner",
                    "type": "address"
                },
                {
                    "indexed": true,
                    "internalType": "address",
                    "name": "spender",
                    "type": "address"
                },
                {
                    "indexed": false,
                    "internalType": "uint256",
                    "name": "value",
                    "type": "uint256"
                }
            ],
            "name": "Approval",
            "type": "event"
        },
        {
            "anonymous": false,
            "inputs": [
                {
                    "indexed": true,
                    "internalType": "address",
                    "name": "from",
                    "type": "address"
                },
                {
                    "indexed": true,
                    "internalType": "address",
                    "name": "to",
                    "type": "address"
                },
                {
                    "indexed": false,
                    "internalType": "uint256",
                    "name": "value",
                    "type": "uint256"
                }
            ],
            "name": "Transfer",
            "type": "event"
        },
        {
            "inputs": [
                {
                    "internalType": "address",
                    "name": "owner",
                    "type": "address"
                },
                {
                    "internalType": "address",
                    "name": "spender",
                    "type": "address"
                }
            ],
            "name": "allowance",
            "outputs": [
                {
                    "internalType": "uint256",
                    "name": "",
                    "type": "uint256"
                }
            ],
            "stateMutability": "view",
            "type": "function"
        },
        {
            "inputs": [
                {
                    "internalType": "address",
                    "name": "spender",
                    "type": "address"
                },
                {
                    "internalType": "uint256",
                    "name": "value",
                    "type": "uint256"
                }
            ],
            "name": "approve",
            "outputs": [
                {
                    "internalType": "bool",
                    "name": "",
                    "type": "bool"
                }
            ],
            "stateMutability": "nonpayable",
            "type": "function"
        },
        {
            "inputs": [
                {
                    "internalType": "address",
                    "name": "account",
                    "type": "address"
                }
            ],
            "name": "balanceOf",
            "outputs": [
                {
                    "internalType": "uint256",
                    "name": "",
                    "type": "uint256"
                }
            ],
            "stateMutability": "view",
            "type": "function"
        },
        {
            "inputs": [],
            "name": "decimals",
            "outputs": [
                {
                    "internalType": "uint8",
                    "name": "",
                    "type": "uint8"
                }
            ],
            "stateMutability": "view",
            "type": "function"
        },
        {
            "inputs": [
                {
                    "internalType": "address",
                    "name": "from",
                    "type": "address"
                },
                {
                    "internalType": "address",
                    "name": "to",
                    "type": "address"
                },
                {
                    "internalType": "uint256",
                    "name": "amount",
                    "type": "uint256"
                }
            ],
            "name": "donate",
            "outputs": [
                {
                    "internalType": "bool",
                    "name": "",
                    "type": "bool"
                }
            ],
            "stateMutability": "nonpayable",
            "type": "function"
        },
        {
            "inputs": [
                {
                    "internalType": "address",
                    "name": "to",
                    "type": "address"
                },
                {
                    "internalType": "uint256",
                    "name": "amount",
                    "type": "uint256"
                }
            ],
            "name": "mint",
            "outputs": [],
            "stateMutability": "nonpayable",
            "type": "function"
        },
        {
            "inputs": [],
            "name": "name",
            "outputs": [
                {
                    "internalType": "string",
                    "name": "",
                    "type": "string"
                }
            ],
            "stateMutability": "view",
            "type": "function"
        },
        {
            "inputs": [],
            "name": "symbol",
            "outputs": [
                {
                    "internalType": "string",
                    "name": "",
                    "type": "string"
                }
            ],
            "stateMutability": "view",
            "type": "function"
        },
        {
            "inputs": [],
            "name": "totalSupply",
            "outputs": [
                {
                    "internalType": "uint256",
                    "name": "",
                    "type": "uint256"
                }
            ],
            "stateMutability": "view",
            "type": "function"
        },
        {
            "inputs": [
                {
                    "internalType": "address",
                    "name": "to",
                    "type": "address"
                },
                {
                    "internalType": "uint256",
                    "name": "amount",
                    "type": "uint256"
                }
            ],
            "name": "transfer",
            "outputs": [
                {
                    "internalType": "bool",
                    "name": "",
                    "type": "bool"
                }
            ],
            "stateMutability": "nonpayable",
            "type": "function"
        },
        {
            "inputs": [
                {
                    "internalType": "address",
                    "name": "from",
                    "type": "address"
                },
                {
                    "internalType": "address",
                    "name": "to",
                    "type": "address"
                },
                {
                    "internalType": "uint256",
                    "name": "value",
                    "type": "uint256"
                }
            ],
            "name": "transferFrom",
            "outputs": [
                {
                    "internalType": "bool",
                    "name": "",
                    "type": "bool"
                }
            ],
            "stateMutability": "nonpayable",
            "type": "function"
        }
    ],
    "bytecode": "0x60806040523480156200001157600080fd5b506040518060400160405280600581526020017f536e616b650000000000000000000000000000000000000000000000000000008152506040518060400160405280600281526020017f534e00000000000000000000000000000000000000000000000000000000000081525081600390816200008f919062000324565b508060049081620000a1919062000324565b5050506200040b565b600081519050919050565b7f4e487b7100000000000000000000000000000000000000000000000000000000600052604160045260246000fd5b7f4e487b7100000000000000000000000000000000000000000000000000000000600052602260045260246000fd5b600060028204905060018216806200012c57607f821691505b602082108103620001425762000141620000e4565b5b50919050565b60008190508160005260206000209050919050565b60006020601f8301049050919050565b600082821b905092915050565b600060088302620001ac7fffffffffffffffffffffffffffffffffffffffffffffffffffffffffffffffff826200016d565b620001b886836200016d565b95508019841693508086168417925050509392505050565b6000819050919050565b6000819050919050565b600062000205620001ff620001f984620001d0565b620001da565b620001d0565b9050919050565b6000819050919050565b6200022183620001e4565b6200023962000230826200020c565b8484546200017a565b825550505050565b600090565b6200025062000241565b6200025d81848462000216565b505050565b5b8181101562000285576200027960008262000246565b60018101905062000263565b5050565b601f821115620002d4576200029e8162000148565b620002a9846200015d565b81016020851015620002b9578190505b620002d1620002c8856200015d565b83018262000262565b50505b505050565b600082821c905092915050565b6000620002f960001984600802620002d9565b1980831691505092915050565b6000620003148383620002e6565b9150826002028217905092915050565b6200032f82620000aa565b67ffffffffffffffff8111156200034b576200034a620000b5565b5b62000357825462000113565b6200036482828562000289565b600060209050601f8311600181146200039c576000841562000387578287015190505b62000393858262000306565b86555062000403565b601f198416620003ac8662000148565b60005b82811015620003d657848901518255600182019150602085019450602081019050620003af565b86831015620003f65784890151620003f2601f891682620002e6565b8355505b6001600288020188555050505b505050505050565b611037806200041b6000396000f3fe608060405234801561001057600080fd5b50600436106100a95760003560e01c8063386bc05a11610071578063386bc05a1461016857806340c10f191461019857806370a08231146101b457806395d89b41146101e4578063a9059cbb14610202578063dd62ed3e14610232576100a9565b806306fdde03146100ae578063095ea7b3146100cc57806318160ddd146100fc57806323b872dd1461011a578063313ce5671461014a575b600080fd5b6100b6610262565b6040516100c39190610bf9565b60405180910390f35b6100e660048036038101906100e19190610cb4565b6102f4565b6040516100f39190610d0f565b60405180910390f35b610104610317565b6040516101119190610d39565b60405180910390f35b610134600480360381019061012f9190610d54565b610321565b6040516101419190610d0f565b60405180910390f35b610152610350565b60405161015f9190610dc3565b60405180910390f35b610182600480360381019061017d9190610d54565b610359565b60405161018f9190610d0f565b60405180910390f35b6101b260048036038101906101ad9190610cb4565b6103bc565b005b6101ce60048036038101906101c99190610dde565b6103ca565b6040516101db9190610d39565b60405180910390f35b6101ec610412565b6040516101f99190610bf9565b60405180910390f35b61021c60048036038101906102179190610cb4565b6104a4565b6040516102299190610d0f565b60405180910390f35b61024c60048036038101906102479190610e0b565b6104c2565b6040516102599190610d39565b60405180910390f35b60606003805461027190610e7a565b80601f016020809104026020016040519081016040528092919081815260200182805461029d90610e7a565b80156102ea5780601f106102bf576101008083540402835291602001916102ea565b820191906000526020600020905b8154815290600101906020018083116102cd57829003601f168201915b5050505050905090565b6000806102ff610549565b905061030c818585610551565b600191505092915050565b6000600254905090565b60008061032c610549565b9050610339858285610563565b6103448585856105f7565b60019150509392505050565b60006012905090565b600081610365856103ca565b10156103a6576040517f08c379a000000000000000000000000000000000000000000000000000000000815260040161039d90610f1d565b60405180910390fd5b6103b18484846105f7565b600190509392505050565b6103c682826106eb565b5050565b60008060008373ffffffffffffffffffffffffffffffffffffffff1673ffffffffffffffffffffffffffffffffffffffff168152602001908152602001600020549050919050565b60606004805461042190610e7a565b80601f016020809104026020016040519081016040528092919081815260200182805461044d90610e7a565b801561049a5780601f1061046f5761010080835404028352916020019161049a565b820191906000526020600020905b81548152906001019060200180831161047d57829003601f168201915b5050505050905090565b60006104b86104b1610549565b84846105f7565b6001905092915050565b6000600160008473ffffffffffffffffffffffffffffffffffffffff1673ffffffffffffffffffffffffffffffffffffffff16815260200190815260200160002060008373ffffffffffffffffffffffffffffffffffffffff1673ffffffffffffffffffffffffffffffffffffffff16815260200190815260200160002054905092915050565b600033905090565b61055e838383600161076d565b505050565b600061056f84846104c2565b90507fffffffffffffffffffffffffffffffffffffffffffffffffffffffffffffffff81146105f157818110156105e1578281836040517ffb8f41b20000000000000000000000000000000000000000000000000000000081526004016105d893929190610f4c565b60405180910390fd5b6105f08484848403600061076d565b5b50505050565b600073ffffffffffffffffffffffffffffffffffffffff168373ffffffffffffffffffffffffffffffffffffffff16036106695760006040517f96c6fd1e0000000000000000000000000000000000000000000000000000000081526004016106609190610f83565b60405180910390fd5b600073ffffffffffffffffffffffffffffffffffffffff168273ffffffffffffffffffffffffffffffffffffffff16036106db5760006040517fec442f050000000000000000000000000000000000000000000000000000000081526004016106d29190610f83565b60405180910390fd5b6106e6838383610944565b505050565b600073ffffffffffffffffffffffffffffffffffffffff168273ffffffffffffffffffffffffffffffffffffffff160361075d5760006040517fec442f050000000000000000000000000000000000000000000000000000000081526004016107549190610f83565b60405180910390fd5b61076960008383610944565b5050565b600073ffffffffffffffffffffffffffffffffffffffff168473ffffffffffffffffffffffffffffffffffffffff16036107df5760006040517fe602df050000000000000000000000000000000000000000000000000000000081526004016107d69190610f83565b60405180910390fd5b600073ffffffffffffffffffffffffffffffffffffffff168373ffffffffffffffffffffffffffffffffffffffff16036108515760006040517f94280d620000000000000000000000000000000000000000000000000000000081526004016108489190610f83565b60405180910390fd5b81600160008673ffffffffffffffffffffffffffffffffffffffff1673ffffffffffffffffffffffffffffffffffffffff16815260200190815260200160002060008573ffffffffffffffffffffffffffffffffffffffff1673ffffffffffffffffffffffffffffffffffffffff16815260200190815260200160002081905550801561093e578273ffffffffffffffffffffffffffffffffffffffff168473ffffffffffffffffffffffffffffffffffffffff167f8c5be1e5ebec7d5bd14f71427d1e84f3dd0314c0f7b2291e5b200ac8c7c3b925846040516109359190610d39565b60405180910390a35b50505050565b600073ffffffffffffffffffffffffffffffffffffffff168373ffffffffffffffffffffffffffffffffffffffff160361099657806002600082825461098a9190610fcd565b92505081905550610a69565b60008060008573ffffffffffffffffffffffffffffffffffffffff1673ffffffffffffffffffffffffffffffffffffffff16815260200190815260200160002054905081811015610a22578381836040517fe450d38c000000000000000000000000000000000000000000000000000000008152600401610a1993929190610f4c565b60405180910390fd5b8181036000808673ffffffffffffffffffffffffffffffffffffffff1673ffffffffffffffffffffffffffffffffffffffff16815260200190815260200160002081905550505b600073ffffffffffffffffffffffffffffffffffffffff168273ffffffffffffffffffffffffffffffffffffffff1603610ab25780600260008282540392505081905550610aff565b806000808473ffffffffffffffffffffffffffffffffffffffff1673ffffffffffffffffffffffffffffffffffffffff168152602001908152602001600020600082825401925050819055505b8173ffffffffffffffffffffffffffffffffffffffff168373ffffffffffffffffffffffffffffffffffffffff167fddf252ad1be2c89b69c2b068fc378daa952ba7f163c4a11628f55a4df523b3ef83604051610b5c9190610d39565b60405180910390a3505050565b600081519050919050565b600082825260208201905092915050565b60005b83811015610ba3578082015181840152602081019050610b88565b60008484015250505050565b6000601f19601f8301169050919050565b6000610bcb82610b69565b610bd58185610b74565b9350610be5818560208601610b85565b610bee81610baf565b840191505092915050565b60006020820190508181036000830152610c138184610bc0565b905092915050565b600080fd5b600073ffffffffffffffffffffffffffffffffffffffff82169050919050565b6000610c4b82610c20565b9050919050565b610c5b81610c40565b8114610c6657600080fd5b50565b600081359050610c7881610c52565b92915050565b6000819050919050565b610c9181610c7e565b8114610c9c57600080fd5b50565b600081359050610cae81610c88565b92915050565b60008060408385031215610ccb57610cca610c1b565b5b6000610cd985828601610c69565b9250506020610cea85828601610c9f565b9150509250929050565b60008115159050919050565b610d0981610cf4565b82525050565b6000602082019050610d246000830184610d00565b92915050565b610d3381610c7e565b82525050565b6000602082019050610d4e6000830184610d2a565b92915050565b600080600060608486031215610d6d57610d6c610c1b565b5b6000610d7b86828701610c69565b9350506020610d8c86828701610c69565b9250506040610d9d86828701610c9f565b9150509250925092565b600060ff82169050919050565b610dbd81610da7565b82525050565b6000602082019050610dd86000830184610db4565b92915050565b600060208284031215610df457610df3610c1b565b5b6000610e0284828501610c69565b91505092915050565b60008060408385031215610e2257610e21610c1b565b5b6000610e3085828601610c69565b9250506020610e4185828601610c69565b9150509250929050565b7f4e487b7100000000000000000000000000000000000000000000000000000000600052602260045260246000fd5b60006002820490506001821680610e9257607f821691505b602082108103610ea557610ea4610e4b565b5b50919050565b7f496e73756666696369656e7420616d6f756e7420696e20646f6e6f722773207760008201527f616c6c6574000000000000000000000000000000000000000000000000000000602082015250565b6000610f07602583610b74565b9150610f1282610eab565b604082019050919050565b60006020820190508181036000830152610f3681610efa565b9050919050565b610f4681610c40565b82525050565b6000606082019050610f616000830186610f3d565b610f6e6020830185610d2a565b610f7b6040830184610d2a565b949350505050565b6000602082019050610f986000830184610f3d565b92915050565b7f4e487b7100000000000000000000000000000000000000000000000000000000600052601160045260246000fd5b6000610fd882610c7e565b9150610fe383610c7e565b9250828201905080821115610ffb57610ffa610f9e565b5b9291505056fea26469706673582212205c38a74e61d39dd8b44d54dfdc7165e3029b6d5a5d5e089583faa02f8cefe73364736f6c63430008140033",
    "linkReferences": {},
    "deployedLinkReferences": {}
}